:100000000C942A000C9447000C9447000C94470071
:100010000C9447000C9447000C9447000C94470044
:100020000C9447000C9447000C9447000C94470034
:100030000C9447000C9447000C9447000C94470024
:100040000C9447000C9447000C9447000C94470014
:100050000C94470011241FBECFE5D8E0DEBFCDBF12
:1000600010E0A0E6B0E0ECE6F6E002C005900D92EC
:10007000AE3AB107D9F720E0AEEAB0E001C01D9278
:10008000AB3BB207E1F70E94E6010C9434030C94F9
:10009000000094EA96BF06B607FEFDCF91B1987FA7
:1000A000983011F0903179F483B984E886BF06B6B0
:1000B00007FEFDCF91B1987F983139F081E09034FF
:1000C00029F480E0089581E0089580E0089584E9AE
:1000D00086BF06B604FCFDCF089583B984E886BFC9
:1000E00006B607FEFDCF91B1987F81E0983209F402
:1000F00080E00895CF93DF93C82F8EE40E944900DB
:10010000DC2FD07F8091AE0084608D2B0E946D002B
:1001100089EF90E00197F1F700C000008091AE00F8
:100120008D2B0E946D0089EF90E00197F1F700C0E0
:10013000000090E1C99FE00111248091AE0084602D
:100140008C2B0E946D0089EF90E00197F1F700C0C1
:1001500000008091AE008C2B0E946D0089EF90E032
:100160000197F1F700C000000E946700DF91CF9176
:100170000895CF93C82F8EE40E944900C07F8091DC
:10018000AE0084608C2B0E946D0089EF90E0019797
:10019000F1F700C000008091AE008C2B0E946D0032
:1001A00089EF90E00197F1F700C000000E9467001E
:1001B000CF9108958093AE0080E30E94B90080E360
:1001C0000E94B90080E30E94B90080E20E94B90059
:1001D00087E893E10197F1F700C0000088E20E94F0
:1001E0007A008CE00E947A0086E00E947A0081E02A
:1001F0000E947A000895CF93DF93C82F8EE40E9467
:100200004900DC2FD07F8091AE00D82B8D2F8560E8
:100210000E946D00DA7F8091AE008D2B0E946D00F0
:1002200080E1C89F90011124C091AE00C560C22B2F
:100230008C2F0E946D002C2F2A7F8091AE00822B84
:100240000E946D000E946700DF91CF910895623097
:1002500031F0633031F0613029F4805C03C08C5E92
:1002600001C08C5A80680E947A00089581E00E9443
:100270007A0008951F93CF93DF930097B1F0EC01BC
:1002800010E007C0FE01E20FF31F80810E94FB0017
:100290001F5F212F30E0FE0101900020E9F7319728
:1002A000EC1BFD0B2E173F0768F3DF91CF911F91D9
:1002B0000895D09AD89887E893E10197F1F700C0A4
:1002C0000000D89A0895D098C899FECFC89BFECF59
:1002D000C899FECF089588E090E0C89BFECF2AE041
:1002E0002A95F1F7C89B07C02091B000220F21602A
:1002F0002093B00005C02091B000220F2093B000E1
:10030000C899FECF019749F78091B0000895CF9327
:10031000DF932091AF002F5F2093AF00263008F4C9
:100320003FC030E0A901480F591F24173507C4F515
:10033000EC012BB381E090E00090610002C0880FD7
:10034000991F0A94E2F7822B8BBB0E94360160E072
:1003500080E00E94270182E690E00E943A018091AD
:1003600061004AE061EB70E090E00E94FF0281EBE7
:1003700090E00E943A0161E080E00E9427018EE651
:1003800090E00E943A014AE061EB70E0CE01880FF4
:10039000991F0E94FF0281EB90E00E943A010DC07C
:1003A0002BB381E090E00090610002C0880F991F9C
:1003B0000A94E2F7809582238BBB8091AF008F3047
:1003C00011F41092AF00DF91CF910895D19AD29A93
:1003D000B898B99887EA91E60197F1F700C0000054
:1003E00088E00E94DA000E9436019FE72AE146E099
:1003F000915020404040E1F700C00000C1E0D2E051
:1004000015E00E9459010E9463010E946B018093D4
:10041000B9000E946B018093B6000E946B0180932B
:10042000B8000E946B018093BA000E946B01809318
:10043000B70060E080E00E942701B09B15C0C09328
:10044000610060E080E00E94270188E790E00E9460
:100450003A015FE38DE093E0515080409040E1F736
:1004600000C000000E943601B19B15C0D09361000E
:1004700060E080E00E94270183E890E00E943A015A
:100480002FE34DE053E0215040405040E1F700C0E1
:1004900000000E94360160E080E00E9427018EE8A3
:1004A00090E00E943A016C2F80E00E94270189E9C8
:1004B00090E00E943A018091B90090E02091B6004E
:1004C000AC01420F511D9A014091B800240F311D1B
:1004D0004091BA00240F311D4091B70050E024171D
:1004E000350749F060E080E00E94270181EA90E052
:1004F0000E943A0178C04AE061EB70E00E94FF027E
:1005000060E08BE00E94270181EB90E00E943A01BD
:1005100087EA90E00E943A018091B6004AE061EBE0
:1005200070E090E00E94FF0281EB90E00E943A01AF
:1005300089EA90E00E943A018091B8004AE061EBBC
:1005400070E090E00E94FF026C2F86E00E9427017D
:1005500081EB90E00E943A0187EA90E00E943A0124
:100560008091BA004AE061EB70E090E00E94FF02E7
:1005700081EB90E00E943A018BEA90E00E943A0100
:100580008091B800833230F0809160008250809377
:10059000600010C0813230F0809160008150809303
:1005A000600008C08D51823028F4809160008F5F18
:1005B000809360008091B900803630F080916000B7
:1005C0008F5F8093600008C08655853028F4809145
:1005D00060008150809360008091600090E00E94F4
:1005E0008701109360005FE78AE196E051508040F8
:1005F0009040E1F700C000000E94360102CFBB2707
:100600004A3031F4992322F4BDE2909581959F4FB1
:100610000C940B03BB27FB015527AA27880F991FB2
:10062000AA1FA41710F0A41B83955051B9F7A05D21
:10063000AA3308F0A95DA193009779F7B111B1939E
:100640001192CB010C942403DC01FC01672F719102
:100650007723E1F7329704C07C916D9370836291A8
:0C066000AE17BF07C8F30895F894FFCF51
:10066C00050152756E20466F6767657220004475F0
:10067C00726174696F6E2000536574204D6F6465F0
:10068C00203100536574204D6F646520320048752D
:10069C006D6964697479203D0054656D70203D204E
:0E06AC00004572726F72002E00250043200080
:00000001FF
