S00A000068772E737265633B
S11300000C942A000C9454000C9482000C943C0030
S11300100C943C000C943C000C943C000C943C006C
S11300200C943C000C9448000C943C000C943C0050
S11300300C943C000C943C000C943C000C943C004C
S11300400C943C000C943C000C943C000C943C003C
S11300500C943C0011241FBECFE5D8E0DEBFCDBF19
S113006020E0A0E6B0E001C01D92A836B207E1F797
S11300700E94EE000C946D010C9400008EB5826019
S11300808EBD1DBC1CBC89B7846089BF789408955B
S11300901F920F920FB60F9211241DBC1CBC0F901F
S11300A00FBE0F901F9018951F920F920FB60F92CC
S11300B011248F939F938091620090916300019724
S11300C061F48CB59DB590936700809366001DBC68
S11300D01CBC1092630010926200809162009091A7
S11300E06300892B41F41DBC1CBC81E090E090931B
S11300F06300809362009F918F910F900FBE0F90C9
S11301001F9018951F920F920FB60F9211248F9380
S11301109F938091600090916100019761F48CB588
S11301209DB590936500809364001DBC1CBC109227
S11301306100109260008091600090916100892BB1
S113014041F41DBC1CBC81E090E09093610080935D
S113015060009F918F910F900FBE0F901F90189584
S1130160909A85E08A95F1F790988FE493EC019743
S1130170F1F700C0000080916600909167006AE387
S113018070E00E944501CB010895919A85E08A951B
S1130190F1F791988FE493EC0197F1F700C0000018
S11301A080916400909165006AE370E00E944501CB
S11301B0CB010895DC9ADD98DE9ADF980895DC9AE5
S11301C0DD98DE98DF9A0895DC98DD9ADE9ADF9850
S11301D00895DC98DD98DE98DF980895D49AD59A2E
S11301E0D69AD79A8FEF87BB83EF81BB83ED90E3D9
S11301F00197F1F700C000008BB780648BBF8BB709
S113020080688BBF85B7816085BF85B7846085BFF3
S11302101FBC0E943E0078940E94B000EC010E9432
S1130220C5002297D4F4029764F4C09A0E94E400B3
S11302308BE49DE10197F1F700C000000E94E90002
S1130240EBCFC0980E94E4008BE49DE10197F1F7A5
S113025000C000000E94E900DFCF02975CF40E9416
S1130260DA008BE49DE10197F1F700C000000E94E1
S1130270E900D2CF0E94DF008BE49DE10197F1F702
S113028000C000000E94E900C7CF97FB072E16F4B8
S1130290009407D077FD09D00E94590107FC05D0CE
S11302A03EF4909581959F4F0895709561957F4F89
S11302B00895AA1BBB1B51E107C0AA1FBB1FA617A9
S11302C0B70710F0A61BB70B881F991F5A95A9F7FB
S11102D080959095BC01CD010895F894FFCF60
S9030000FC
